{
  "contractName": "CredentialManager",
  "abi": [
    {
      "inputs": [],
      "stateMutability": "nonpayable",
      "type": "constructor"
    },
    {
      "anonymous": false,
      "inputs": [
        {
          "indexed": true,
          "internalType": "bytes32",
          "name": "regHash",
          "type": "bytes32"
        },
        {
          "indexed": false,
          "internalType": "uint256",
          "name": "issuerId",
          "type": "uint256"
        }
      ],
      "name": "CredUploaded",
      "type": "event"
    },
    {
      "anonymous": false,
      "inputs": [
        {
          "indexed": false,
          "internalType": "bytes",
          "name": "ppHash",
          "type": "bytes"
        }
      ],
      "name": "Initialized",
      "type": "event"
    },
    {
      "anonymous": false,
      "inputs": [
        {
          "indexed": true,
          "internalType": "uint256",
          "name": "issuerId",
          "type": "uint256"
        },
        {
          "indexed": false,
          "internalType": "bytes",
          "name": "ipk",
          "type": "bytes"
        }
      ],
      "name": "IssuerAdded",
      "type": "event"
    },
    {
      "anonymous": false,
      "inputs": [
        {
          "indexed": true,
          "internalType": "bytes32",
          "name": "regHash",
          "type": "bytes32"
        }
      ],
      "name": "RegUploaded",
      "type": "event"
    },
    {
      "anonymous": false,
      "inputs": [
        {
          "indexed": true,
          "internalType": "bytes32",
          "name": "regHash",
          "type": "bytes32"
        }
      ],
      "name": "RevUploaded",
      "type": "event"
    },
    {
      "anonymous": false,
      "inputs": [
        {
          "indexed": true,
          "internalType": "bytes32",
          "name": "tokHash",
          "type": "bytes32"
        }
      ],
      "name": "TokenUploaded",
      "type": "event"
    },
    {
      "anonymous": false,
      "inputs": [
        {
          "indexed": true,
          "internalType": "uint256",
          "name": "tracerId",
          "type": "uint256"
        },
        {
          "indexed": false,
          "internalType": "bytes",
          "name": "tpk",
          "type": "bytes"
        }
      ],
      "name": "TracerAdded",
      "type": "event"
    },
    {
      "inputs": [
        {
          "internalType": "bytes32",
          "name": "",
          "type": "bytes32"
        },
        {
          "internalType": "uint256",
          "name": "",
          "type": "uint256"
        }
      ],
      "name": "credentials",
      "outputs": [
        {
          "internalType": "bytes",
          "name": "credData",
          "type": "bytes"
        },
        {
          "internalType": "bool",
          "name": "uploaded",
          "type": "bool"
        }
      ],
      "stateMutability": "view",
      "type": "function",
      "constant": true
    },
    {
      "inputs": [
        {
          "internalType": "bytes32",
          "name": "",
          "type": "bytes32"
        }
      ],
      "name": "iDValues",
      "outputs": [
        {
          "internalType": "bytes",
          "name": "",
          "type": "bytes"
        }
      ],
      "stateMutability": "view",
      "type": "function",
      "constant": true
    },
    {
      "inputs": [],
      "name": "initialized",
      "outputs": [
        {
          "internalType": "bool",
          "name": "",
          "type": "bool"
        }
      ],
      "stateMutability": "view",
      "type": "function",
      "constant": true
    },
    {
      "inputs": [],
      "name": "issuerCount",
      "outputs": [
        {
          "internalType": "uint256",
          "name": "",
          "type": "uint256"
        }
      ],
      "stateMutability": "view",
      "type": "function",
      "constant": true
    },
    {
      "inputs": [
        {
          "internalType": "uint256",
          "name": "",
          "type": "uint256"
        }
      ],
      "name": "issuers",
      "outputs": [
        {
          "internalType": "bytes",
          "name": "ipk",
          "type": "bytes"
        },
        {
          "internalType": "bool",
          "name": "isActive",
          "type": "bool"
        }
      ],
      "stateMutability": "view",
      "type": "function",
      "constant": true
    },
    {
      "inputs": [
        {
          "internalType": "bytes32",
          "name": "",
          "type": "bytes32"
        }
      ],
      "name": "qValues",
      "outputs": [
        {
          "internalType": "bytes",
          "name": "",
          "type": "bytes"
        }
      ],
      "stateMutability": "view",
      "type": "function",
      "constant": true
    },
    {
      "inputs": [
        {
          "internalType": "bytes32",
          "name": "",
          "type": "bytes32"
        }
      ],
      "name": "registrations",
      "outputs": [
        {
          "internalType": "bytes",
          "name": "regData",
          "type": "bytes"
        },
        {
          "internalType": "bool",
          "name": "exists",
          "type": "bool"
        }
      ],
      "stateMutability": "view",
      "type": "function",
      "constant": true
    },
    {
      "inputs": [
        {
          "internalType": "bytes32",
          "name": "",
          "type": "bytes32"
        }
      ],
      "name": "revocations",
      "outputs": [
        {
          "internalType": "bytes",
          "name": "revData",
          "type": "bytes"
        },
        {
          "internalType": "bool",
          "name": "revoked",
          "type": "bool"
        }
      ],
      "stateMutability": "view",
      "type": "function",
      "constant": true
    },
    {
      "inputs": [
        {
          "internalType": "bytes32",
          "name": "",
          "type": "bytes32"
        }
      ],
      "name": "tValues",
      "outputs": [
        {
          "internalType": "bytes",
          "name": "",
          "type": "bytes"
        }
      ],
      "stateMutability": "view",
      "type": "function",
      "constant": true
    },
    {
      "inputs": [
        {
          "internalType": "bytes32",
          "name": "",
          "type": "bytes32"
        }
      ],
      "name": "tokens",
      "outputs": [
        {
          "internalType": "bytes",
          "name": "tokData",
          "type": "bytes"
        },
        {
          "internalType": "bytes",
          "name": "voteId",
          "type": "bytes"
        },
        {
          "internalType": "bool",
          "name": "used",
          "type": "bool"
        }
      ],
      "stateMutability": "view",
      "type": "function",
      "constant": true
    },
    {
      "inputs": [],
      "name": "tracerCount",
      "outputs": [
        {
          "internalType": "uint256",
          "name": "",
          "type": "uint256"
        }
      ],
      "stateMutability": "view",
      "type": "function",
      "constant": true
    },
    {
      "inputs": [
        {
          "internalType": "uint256",
          "name": "",
          "type": "uint256"
        }
      ],
      "name": "tracers",
      "outputs": [
        {
          "internalType": "bytes",
          "name": "tpk",
          "type": "bytes"
        },
        {
          "internalType": "bool",
          "name": "isActive",
          "type": "bool"
        }
      ],
      "stateMutability": "view",
      "type": "function",
      "constant": true
    },
    {
      "inputs": [],
      "name": "ttp",
      "outputs": [
        {
          "internalType": "address",
          "name": "",
          "type": "address"
        }
      ],
      "stateMutability": "view",
      "type": "function",
      "constant": true
    },
    {
      "inputs": [
        {
          "internalType": "bytes",
          "name": "ppHash",
          "type": "bytes"
        }
      ],
      "name": "Create",
      "outputs": [],
      "stateMutability": "nonpayable",
      "type": "function"
    },
    {
      "inputs": [
        {
          "internalType": "bytes",
          "name": "ipk",
          "type": "bytes"
        }
      ],
      "name": "AddIssuer",
      "outputs": [],
      "stateMutability": "nonpayable",
      "type": "function"
    },
    {
      "inputs": [
        {
          "internalType": "bytes",
          "name": "tpk",
          "type": "bytes"
        }
      ],
      "name": "AddTracer",
      "outputs": [],
      "stateMutability": "nonpayable",
      "type": "function"
    },
    {
      "inputs": [
        {
          "internalType": "bytes32",
          "name": "regHash",
          "type": "bytes32"
        },
        {
          "internalType": "bytes",
          "name": "regData",
          "type": "bytes"
        }
      ],
      "name": "uploadReg",
      "outputs": [],
      "stateMutability": "nonpayable",
      "type": "function"
    },
    {
      "inputs": [
        {
          "internalType": "bytes32",
          "name": "regHash",
          "type": "bytes32"
        }
      ],
      "name": "getReg",
      "outputs": [
        {
          "internalType": "bytes",
          "name": "",
          "type": "bytes"
        }
      ],
      "stateMutability": "view",
      "type": "function",
      "constant": true
    },
    {
      "inputs": [
        {
          "internalType": "bytes32",
          "name": "regHash",
          "type": "bytes32"
        },
        {
          "internalType": "uint256",
          "name": "issuerId",
          "type": "uint256"
        },
        {
          "internalType": "bytes",
          "name": "credData",
          "type": "bytes"
        }
      ],
      "name": "uploadCred",
      "outputs": [],
      "stateMutability": "nonpayable",
      "type": "function"
    },
    {
      "inputs": [
        {
          "internalType": "bytes32",
          "name": "regHash",
          "type": "bytes32"
        },
        {
          "internalType": "uint256",
          "name": "issuerId",
          "type": "uint256"
        }
      ],
      "name": "getCred",
      "outputs": [
        {
          "internalType": "bytes",
          "name": "",
          "type": "bytes"
        }
      ],
      "stateMutability": "view",
      "type": "function",
      "constant": true
    },
    {
      "inputs": [
        {
          "internalType": "bytes32",
          "name": "tokHash",
          "type": "bytes32"
        },
        {
          "internalType": "bytes",
          "name": "tokData",
          "type": "bytes"
        }
      ],
      "name": "uploadToken",
      "outputs": [],
      "stateMutability": "nonpayable",
      "type": "function"
    },
    {
      "inputs": [
        {
          "internalType": "bytes32",
          "name": "tokHash",
          "type": "bytes32"
        }
      ],
      "name": "getToken",
      "outputs": [
        {
          "internalType": "bytes",
          "name": "",
          "type": "bytes"
        }
      ],
      "stateMutability": "view",
      "type": "function",
      "constant": true
    },
    {
      "inputs": [
        {
          "internalType": "bytes32",
          "name": "key",
          "type": "bytes32"
        },
        {
          "internalType": "bytes",
          "name": "value",
          "type": "bytes"
        }
      ],
      "name": "uploadTi",
      "outputs": [],
      "stateMutability": "nonpayable",
      "type": "function"
    },
    {
      "inputs": [
        {
          "internalType": "bytes32",
          "name": "key",
          "type": "bytes32"
        }
      ],
      "name": "getTi",
      "outputs": [
        {
          "internalType": "bytes",
          "name": "",
          "type": "bytes"
        }
      ],
      "stateMutability": "view",
      "type": "function",
      "constant": true
    },
    {
      "inputs": [
        {
          "internalType": "bytes32",
          "name": "key",
          "type": "bytes32"
        },
        {
          "internalType": "bytes",
          "name": "value",
          "type": "bytes"
        }
      ],
      "name": "uploadID",
      "outputs": [],
      "stateMutability": "nonpayable",
      "type": "function"
    },
    {
      "inputs": [
        {
          "internalType": "bytes32",
          "name": "key",
          "type": "bytes32"
        }
      ],
      "name": "getID",
      "outputs": [
        {
          "internalType": "bytes",
          "name": "",
          "type": "bytes"
        }
      ],
      "stateMutability": "view",
      "type": "function",
      "constant": true
    },
    {
      "inputs": [
        {
          "internalType": "bytes32",
          "name": "key",
          "type": "bytes32"
        },
        {
          "internalType": "bytes",
          "name": "value",
          "type": "bytes"
        }
      ],
      "name": "uploadQi",
      "outputs": [],
      "stateMutability": "nonpayable",
      "type": "function"
    },
    {
      "inputs": [
        {
          "internalType": "bytes32",
          "name": "key",
          "type": "bytes32"
        }
      ],
      "name": "getQi",
      "outputs": [
        {
          "internalType": "bytes",
          "name": "",
          "type": "bytes"
        }
      ],
      "stateMutability": "view",
      "type": "function",
      "constant": true
    },
    {
      "inputs": [
        {
          "internalType": "bytes32",
          "name": "regHash",
          "type": "bytes32"
        },
        {
          "internalType": "bytes",
          "name": "revData",
          "type": "bytes"
        }
      ],
      "name": "uploadRev",
      "outputs": [],
      "stateMutability": "nonpayable",
      "type": "function"
    },
    {
      "inputs": [
        {
          "internalType": "bytes32",
          "name": "regHash",
          "type": "bytes32"
        }
      ],
      "name": "getRev",
      "outputs": [
        {
          "internalType": "bytes",
          "name": "",
          "type": "bytes"
        }
      ],
      "stateMutability": "view",
      "type": "function",
      "constant": true
    },
    {
      "inputs": [
        {
          "internalType": "bytes32",
          "name": "regHash",
          "type": "bytes32"
        }
      ],
      "name": "isRevoked",
      "outputs": [
        {
          "internalType": "bool",
          "name": "",
          "type": "bool"
        }
      ],
      "stateMutability": "view",
      "type": "function",
      "constant": true
    },
    {
      "inputs": [],
      "name": "getIssuerCount",
      "outputs": [
        {
          "internalType": "uint256",
          "name": "",
          "type": "uint256"
        }
      ],
      "stateMutability": "view",
      "type": "function",
      "constant": true
    },
    {
      "inputs": [],
      "name": "getTracerCount",
      "outputs": [
        {
          "internalType": "uint256",
          "name": "",
          "type": "uint256"
        }
      ],
      "stateMutability": "view",
      "type": "function",
      "constant": true
    }
  ],
  "bytecode": "0x608060405234801561001057600080fd5b50336000806101000a81548173ffffffffffffffffffffffffffffffffffffffff021916908373ffffffffffffffffffffffffffffffffffffffff1602179055506130ab806100606000396000f3fe608060405234801561001057600080fd5b50600436106101fb5760003560e01c806388e8e43b1161011a578063bf1b70d4116100ad578063da7c6a421161007c578063da7c6a421461064a578063e083e6fa1461067b578063e527699f146106ab578063f0e54056146106c9578063f8901a6f146106e7576101fb565b8063bf1b70d41461058a578063c8575fa2146105ba578063ccb16bff146105ea578063d7b71e871461061a576101fb565b80639ff0181b116100e95780639ff0181b14610503578063b3ccf9091461051f578063b4d7b98b1461053b578063bbe4878014610559576101fb565b806388e8e43b146104545780638ff23a7814610485578063904194a3146104b55780639bbbbe5a146104e7576101fb565b806355920680116101925780637443159a116101615780637443159a146103cd57806377e5484d146103eb5780637b0844861461040757806384c12db414610438576101fb565b8063559206801461033257806358b169a51461034e57806361ec30c41461037e57806363527b49146103af576101fb565b8063158ef93e116101ce578063158ef93e146102ac5780632f2b440b146102ca5780634294857f146102e657806353b4f55f14610316576101fb565b806301110d5d146102005780630e8b894f1461021c578063139f2e7e1461024c578063155bf4e21461027c575b600080fd5b61021a600480360381019061021591906127af565b610703565b005b61023660048036038101906102319190612686565b6108e9565b6040516102439190612c4a565b60405180910390f35b61026660048036038101906102619190612707565b6109dd565b6040516102739190612c4a565b60405180910390f35b61029660048036038101906102919190612686565b610b5a565b6040516102a39190612c4a565b60405180910390f35b6102b4610cb4565b6040516102c19190612c0b565b60405180910390f35b6102e460048036038101906102df91906126af565b610cc7565b005b61030060048036038101906102fb9190612686565b610d3e565b60405161030d9190612c0b565b60405180910390f35b610330600480360381019061032b91906127af565b610db9565b005b61034c600480360381019061034791906126af565b610f9f565b005b61036860048036038101906103639190612686565b611133565b6040516103759190612c4a565b60405180910390f35b610398600480360381019061039391906127f4565b6111d3565b6040516103a6929190612c6c565b60405180910390f35b6103b761128c565b6040516103c49190612e81565b60405180910390f35b6103d5611296565b6040516103e29190612bf0565b60405180910390f35b610405600480360381019061040091906127af565b6112ba565b005b610421600480360381019061041c91906127f4565b6113f0565b60405161042f929190612c6c565b60405180910390f35b610452600480360381019061044d91906126af565b6114a9565b005b61046e60048036038101906104699190612707565b61163c565b60405161047c929190612c6c565b60405180910390f35b61049f600480360381019061049a9190612686565b611702565b6040516104ac9190612c4a565b60405180910390f35b6104cf60048036038101906104ca9190612686565b6117a2565b6040516104de93929190612c9c565b60405180910390f35b61050160048036038101906104fc91906126af565b6118e9565b005b61051d600480360381019061051891906126af565b611960565b005b61053960048036038101906105349190612743565b6119d7565b005b610543611c5f565b6040516105509190612e81565b60405180910390f35b610573600480360381019061056e9190612686565b611c65565b604051610581929190612c6c565b60405180910390f35b6105a4600480360381019061059f9190612686565b611d1e565b6040516105b19190612c4a565b60405180910390f35b6105d460048036038101906105cf9190612686565b611e78565b6040516105e19190612c4a565b60405180910390f35b61060460048036038101906105ff9190612686565b611fd2565b6040516106119190612c4a565b60405180910390f35b610634600480360381019061062f9190612686565b6120c6565b6040516106419190612c4a565b60405180910390f35b610664600480360381019061065f9190612686565b6121ba565b604051610672929190612c6c565b60405180910390f35b61069560048036038101906106909190612686565b612273565b6040516106a29190612c4a565b60405180910390f35b6106b3612313565b6040516106c09190612e81565b60405180910390f35b6106d1612319565b6040516106de9190612e81565b60405180910390f35b61070160048036038101906106fc91906126af565b612323565b005b60008054906101000a900473ffffffffffffffffffffffffffffffffffffffff1673ffffffffffffffffffffffffffffffffffffffff163373ffffffffffffffffffffffffffffffffffffffff1614610791576040517f08c379a000000000000000000000000000000000000000000000000000000000815260040161078890612d01565b60405180910390fd5b600060149054906101000a900460ff166107e0576040517f08c379a00000000000000000000000000000000000000000000000000000000081526004016107d790612da1565b60405180910390fd5b600a60008154809291906107f390612f8f565b9190505550604051806040016040528083838080601f016020809104026020016040519081016040528093929190818152602001838380828437600081840152601f19601f8201169050808301925050505050505081526020016001151581525060046000600a54815260200190815260200160002060008201518160000190805190602001906108859291906124e9565b5060208201518160010160006101000a81548160ff021916908315150217905550905050600a547f596b3b571fde600d1b1a9fc857e5235c985e2a3d6befcb20c9de8cd53262ce8483836040516108dd929190612c26565b60405180910390a25050565b6060600060149054906101000a900460ff1661093a576040517f08c379a000000000000000000000000000000000000000000000000000000000815260040161093190612da1565b60405180910390fd5b60016000838152602001908152602001600020805461095890612f5d565b80601f016020809104026020016040519081016040528092919081815260200182805461098490612f5d565b80156109d15780601f106109a6576101008083540402835291602001916109d1565b820191906000526020600020905b8154815290600101906020018083116109b457829003601f168201915b50505050509050919050565b6060600060149054906101000a900460ff16610a2e576040517f08c379a0000000000000000000000000000000000000000000000000000000008152600401610a2590612da1565b60405180910390fd5b60086000848152602001908152602001600020600083815260200190815260200160002060010160009054906101000a900460ff16610aa2576040517f08c379a0000000000000000000000000000000000000000000000000000000008152600401610a9990612d61565b60405180910390fd5b6008600084815260200190815260200160002060008381526020019081526020016000206000018054610ad490612f5d565b80601f0160208091040260200160405190810160405280929190818152602001828054610b0090612f5d565b8015610b4d5780601f10610b2257610100808354040283529160200191610b4d565b820191906000526020600020905b815481529060010190602001808311610b3057829003601f168201915b5050505050905092915050565b6060600060149054906101000a900460ff16610bab576040517f08c379a0000000000000000000000000000000000000000000000000000000008152600401610ba290612da1565b60405180910390fd5b6009600083815260200190815260200160002060020160009054906101000a900460ff16610c0e576040517f08c379a0000000000000000000000000000000000000000000000000000000008152600401610c0590612d21565b60405180910390fd5b600960008381526020019081526020016000206000018054610c2f90612f5d565b80601f0160208091040260200160405190810160405280929190818152602001828054610c5b90612f5d565b8015610ca85780601f10610c7d57610100808354040283529160200191610ca8565b820191906000526020600020905b815481529060010190602001808311610c8b57829003601f168201915b50505050509050919050565b600060149054906101000a900460ff1681565b600060149054906101000a900460ff16610d16576040517f08c379a0000000000000000000000000000000000000000000000000000000008152600401610d0d90612da1565b60405180910390fd5b8181600260008681526020019081526020016000209190610d3892919061256f565b50505050565b60008060149054906101000a900460ff16610d8e576040517f08c379a0000000000000000000000000000000000000000000000000000000008152600401610d8590612da1565b60405180910390fd5b6007600083815260200190815260200160002060010160009054906101000a900460ff169050919050565b60008054906101000a900473ffffffffffffffffffffffffffffffffffffffff1673ffffffffffffffffffffffffffffffffffffffff163373ffffffffffffffffffffffffffffffffffffffff1614610e47576040517f08c379a0000000000000000000000000000000000000000000000000000000008152600401610e3e90612d01565b60405180910390fd5b600060149054906101000a900460ff16610e96576040517f08c379a0000000000000000000000000000000000000000000000000000000008152600401610e8d90612da1565b60405180910390fd5b600b6000815480929190610ea990612f8f565b9190505550604051806040016040528083838080601f016020809104026020016040519081016040528093929190818152602001838380828437600081840152601f19601f8201169050808301925050505050505081526020016001151581525060056000600b5481526020019081526020016000206000820151816000019080519060200190610f3b9291906124e9565b5060208201518160010160006101000a81548160ff021916908315150217905550905050600b547f7bcc8a3ab331d0dc0c25bc9bf93b035f7d61b63f0238293df01ca6425d34e9a78383604051610f93929190612c26565b60405180910390a25050565b600060149054906101000a900460ff16610fee576040517f08c379a0000000000000000000000000000000000000000000000000000000008152600401610fe590612da1565b60405180910390fd5b6006600084815260200190815260200160002060010160009054906101000a900460ff1615611052576040517f08c379a000000000000000000000000000000000000000000000000000000000815260040161104990612d41565b60405180910390fd5b604051806040016040528083838080601f016020809104026020016040519081016040528093929190818152602001838380828437600081840152601f19601f820116905080830192505050505050508152602001600115158152506006600085815260200190815260200160002060008201518160000190805190602001906110dd9291906124e9565b5060208201518160010160006101000a81548160ff021916908315150217905550905050827f9e21f25d7e367c03c8bd30bda16ee2b432c92e85fb97df14188232ad84fa031260405160405180910390a2505050565b6002602052806000526040600020600091509050805461115290612f5d565b80601f016020809104026020016040519081016040528092919081815260200182805461117e90612f5d565b80156111cb5780601f106111a0576101008083540402835291602001916111cb565b820191906000526020600020905b8154815290600101906020018083116111ae57829003601f168201915b505050505081565b60046020528060005260406000206000915090508060000180546111f690612f5d565b80601f016020809104026020016040519081016040528092919081815260200182805461122290612f5d565b801561126f5780601f106112445761010080835404028352916020019161126f565b820191906000526020600020905b81548152906001019060200180831161125257829003601f168201915b5050505050908060010160009054906101000a900460ff16905082565b6000600a54905090565b60008054906101000a900473ffffffffffffffffffffffffffffffffffffffff1681565b60008054906101000a900473ffffffffffffffffffffffffffffffffffffffff1673ffffffffffffffffffffffffffffffffffffffff163373ffffffffffffffffffffffffffffffffffffffff1614611348576040517f08c379a000000000000000000000000000000000000000000000000000000000815260040161133f90612d01565b60405180910390fd5b600060149054906101000a900460ff1615611398576040517f08c379a000000000000000000000000000000000000000000000000000000000815260040161138f90612e61565b60405180910390fd5b6001600060146101000a81548160ff0219169083151502179055507f5e399709a9ff1709f6f6be7268c8e5c3eeaa9da9cd9797e78f07ef287c3717fe82826040516113e4929190612c26565b60405180910390a15050565b600560205280600052604060002060009150905080600001805461141390612f5d565b80601f016020809104026020016040519081016040528092919081815260200182805461143f90612f5d565b801561148c5780601f106114615761010080835404028352916020019161148c565b820191906000526020600020905b81548152906001019060200180831161146f57829003601f168201915b5050505050908060010160009054906101000a900460ff16905082565b600060149054906101000a900460ff166114f8576040517f08c379a00000000000000000000000000000000000000000000000000000000081526004016114ef90612da1565b60405180910390fd5b6006600084815260200190815260200160002060010160009054906101000a900460ff1661155b576040517f08c379a000000000000000000000000000000000000000000000000000000000815260040161155290612dc1565b60405180910390fd5b604051806040016040528083838080601f016020809104026020016040519081016040528093929190818152602001838380828437600081840152601f19601f820116905080830192505050505050508152602001600115158152506007600085815260200190815260200160002060008201518160000190805190602001906115e69291906124e9565b5060208201518160010160006101000a81548160ff021916908315150217905550905050827f5c25d91e653128e4665b11f005257910d7c630bc36096a33beb40fc453027ad760405160405180910390a2505050565b60086020528160005260406000206020528060005260406000206000915091505080600001805461166c90612f5d565b80601f016020809104026020016040519081016040528092919081815260200182805461169890612f5d565b80156116e55780601f106116ba576101008083540402835291602001916116e5565b820191906000526020600020905b8154815290600101906020018083116116c857829003601f168201915b5050505050908060010160009054906101000a900460ff16905082565b6001602052806000526040600020600091509050805461172190612f5d565b80601f016020809104026020016040519081016040528092919081815260200182805461174d90612f5d565b801561179a5780601f1061176f5761010080835404028352916020019161179a565b820191906000526020600020905b81548152906001019060200180831161177d57829003601f168201915b505050505081565b60096020528060005260406000206000915090508060000180546117c590612f5d565b80601f01602080910402602001604051908101604052809291908181526020018280546117f190612f5d565b801561183e5780601f106118135761010080835404028352916020019161183e565b820191906000526020600020905b81548152906001019060200180831161182157829003601f168201915b50505050509080600101805461185390612f5d565b80601f016020809104026020016040519081016040528092919081815260200182805461187f90612f5d565b80156118cc5780601f106118a1576101008083540402835291602001916118cc565b820191906000526020600020905b8154815290600101906020018083116118af57829003601f168201915b5050505050908060020160009054906101000a900460ff16905083565b600060149054906101000a900460ff16611938576040517f08c379a000000000000000000000000000000000000000000000000000000000815260040161192f90612da1565b60405180910390fd5b818160016000868152602001908152602001600020919061195a92919061256f565b50505050565b600060149054906101000a900460ff166119af576040517f08c379a00000000000000000000000000000000000000000000000000000000081526004016119a690612da1565b60405180910390fd5b81816003600086815260200190815260200160002091906119d192919061256f565b50505050565b600060149054906101000a900460ff16611a26576040517f08c379a0000000000000000000000000000000000000000000000000000000008152600401611a1d90612da1565b60405180910390fd5b6006600085815260200190815260200160002060010160009054906101000a900460ff16611a89576040517f08c379a0000000000000000000000000000000000000000000000000000000008152600401611a8090612ce1565b60405180910390fd5b6004600084815260200190815260200160002060010160009054906101000a900460ff16611aec576040517f08c379a0000000000000000000000000000000000000000000000000000000008152600401611ae390612e01565b60405180910390fd5b60086000858152602001908152602001600020600084815260200190815260200160002060010160009054906101000a900460ff1615611b61576040517f08c379a0000000000000000000000000000000000000000000000000000000008152600401611b5890612e41565b60405180910390fd5b604051806040016040528083838080601f016020809104026020016040519081016040528093929190818152602001838380828437600081840152601f19601f820116905080830192505050505050508152602001600115158152506008600086815260200190815260200160002060008581526020019081526020016000206000820151816000019080519060200190611bfd9291906124e9565b5060208201518160010160006101000a81548160ff021916908315150217905550905050837ff4c039802fcd290eb6e303cc62318b4592d41ee6e1c7dce51a6b6ef0da42b9a984604051611c519190612e81565b60405180910390a250505050565b600a5481565b6007602052806000526040600020600091509050806000018054611c8890612f5d565b80601f0160208091040260200160405190810160405280929190818152602001828054611cb490612f5d565b8015611d015780601f10611cd657610100808354040283529160200191611d01565b820191906000526020600020905b815481529060010190602001808311611ce457829003601f168201915b5050505050908060010160009054906101000a900460ff16905082565b6060600060149054906101000a900460ff16611d6f576040517f08c379a0000000000000000000000000000000000000000000000000000000008152600401611d6690612da1565b60405180910390fd5b6007600083815260200190815260200160002060010160009054906101000a900460ff16611dd2576040517f08c379a0000000000000000000000000000000000000000000000000000000008152600401611dc990612d81565b60405180910390fd5b600760008381526020019081526020016000206000018054611df390612f5d565b80601f0160208091040260200160405190810160405280929190818152602001828054611e1f90612f5d565b8015611e6c5780601f10611e4157610100808354040283529160200191611e6c565b820191906000526020600020905b815481529060010190602001808311611e4f57829003601f168201915b50505050509050919050565b6060600060149054906101000a900460ff16611ec9576040517f08c379a0000000000000000000000000000000000000000000000000000000008152600401611ec090612da1565b60405180910390fd5b6006600083815260200190815260200160002060010160009054906101000a900460ff16611f2c576040517f08c379a0000000000000000000000000000000000000000000000000000000008152600401611f2390612e21565b60405180910390fd5b600660008381526020019081526020016000206000018054611f4d90612f5d565b80601f0160208091040260200160405190810160405280929190818152602001828054611f7990612f5d565b8015611fc65780601f10611f9b57610100808354040283529160200191611fc6565b820191906000526020600020905b815481529060010190602001808311611fa957829003601f168201915b50505050509050919050565b6060600060149054906101000a900460ff16612023576040517f08c379a000000000000000000000000000000000000000000000000000000000815260040161201a90612da1565b60405180910390fd5b60026000838152602001908152602001600020805461204190612f5d565b80601f016020809104026020016040519081016040528092919081815260200182805461206d90612f5d565b80156120ba5780601f1061208f576101008083540402835291602001916120ba565b820191906000526020600020905b81548152906001019060200180831161209d57829003601f168201915b50505050509050919050565b6060600060149054906101000a900460ff16612117576040517f08c379a000000000000000000000000000000000000000000000000000000000815260040161210e90612da1565b60405180910390fd5b60036000838152602001908152602001600020805461213590612f5d565b80601f016020809104026020016040519081016040528092919081815260200182805461216190612f5d565b80156121ae5780601f10612183576101008083540402835291602001916121ae565b820191906000526020600020905b81548152906001019060200180831161219157829003601f168201915b50505050509050919050565b60066020528060005260406000206000915090508060000180546121dd90612f5d565b80601f016020809104026020016040519081016040528092919081815260200182805461220990612f5d565b80156122565780601f1061222b57610100808354040283529160200191612256565b820191906000526020600020905b81548152906001019060200180831161223957829003601f168201915b5050505050908060010160009054906101000a900460ff16905082565b6003602052806000526040600020600091509050805461229290612f5d565b80601f01602080910402602001604051908101604052809291908181526020018280546122be90612f5d565b801561230b5780601f106122e05761010080835404028352916020019161230b565b820191906000526020600020905b8154815290600101906020018083116122ee57829003601f168201915b505050505081565b600b5481565b6000600b54905090565b600060149054906101000a900460ff16612372576040517f08c379a000000000000000000000000000000000000000000000000000000000815260040161236990612da1565b60405180910390fd5b6009600084815260200190815260200160002060020160009054906101000a900460ff16156123d6576040517f08c379a00000000000000000000000000000000000000000000000000000000081526004016123cd90612de1565b60405180910390fd5b604051806060016040528083838080601f016020809104026020016040519081016040528093929190818152602001838380828437600081840152601f19601f820116905080830192505050505050508152602001604051806020016040528060008152508152602001600115158152506009600085815260200190815260200160002060008201518160000190805190602001906124769291906124e9565b5060208201518160010190805190602001906124939291906124e9565b5060408201518160020160006101000a81548160ff021916908315150217905550905050827f5beda9c8164ad43f1dcfb9923ab936d5b72707aa84f768e1107e0f580bbb365d60405160405180910390a2505050565b8280546124f590612f5d565b90600052602060002090601f016020900481019282612517576000855561255e565b82601f1061253057805160ff191683800117855561255e565b8280016001018555821561255e579182015b8281111561255d578251825591602001919060010190612542565b5b50905061256b91906125f5565b5090565b82805461257b90612f5d565b90600052602060002090601f01602090048101928261259d57600085556125e4565b82601f106125b657803560ff19168380011785556125e4565b828001600101855582156125e4579182015b828111156125e35782358255916020019190600101906125c8565b5b5090506125f191906125f5565b5090565b5b8082111561260e5760008160009055506001016125f6565b5090565b60008135905061262181613047565b92915050565b60008083601f84011261263957600080fd5b8235905067ffffffffffffffff81111561265257600080fd5b60208301915083600182028301111561266a57600080fd5b9250929050565b6000813590506126808161305e565b92915050565b60006020828403121561269857600080fd5b60006126a684828501612612565b91505092915050565b6000806000604084860312156126c457600080fd5b60006126d286828701612612565b935050602084013567ffffffffffffffff8111156126ef57600080fd5b6126fb86828701612627565b92509250509250925092565b6000806040838503121561271a57600080fd5b600061272885828601612612565b925050602061273985828601612671565b9150509250929050565b6000806000806060858703121561275957600080fd5b600061276787828801612612565b945050602061277887828801612671565b935050604085013567ffffffffffffffff81111561279557600080fd5b6127a187828801612627565b925092505092959194509250565b600080602083850312156127c257600080fd5b600083013567ffffffffffffffff8111156127dc57600080fd5b6127e885828601612627565b92509250509250929050565b60006020828403121561280657600080fd5b600061281484828501612671565b91505092915050565b61282681612ec9565b82525050565b61283581612edb565b82525050565b60006128478385612ea7565b9350612854838584612f1b565b61285d83613036565b840190509392505050565b600061287382612e9c565b61287d8185612ea7565b935061288d818560208601612f2a565b61289681613036565b840191505092915050565b60006128ae601383612eb8565b91507f55736572206e6f742072656769737465726564000000000000000000000000006000830152602082019050919050565b60006128ee601183612eb8565b91507f4f6e6c79205454502063616e2063616c6c0000000000000000000000000000006000830152602082019050919050565b600061292e600f83612eb8565b91507f546f6b656e206e6f7420666f756e6400000000000000000000000000000000006000830152602082019050919050565b600061296e601283612eb8565b91507f416c7265616479207265676973746572656400000000000000000000000000006000830152602082019050919050565b60006129ae601483612eb8565b91507f43726564656e7469616c206e6f7420666f756e640000000000000000000000006000830152602082019050919050565b60006129ee600b83612eb8565b91507f4e6f74207265766f6b65640000000000000000000000000000000000000000006000830152602082019050919050565b6000612a2e600f83612eb8565b91507f4e6f7420696e697469616c697a656400000000000000000000000000000000006000830152602082019050919050565b6000612a6e600e83612eb8565b91507f55736572206e6f7420666f756e640000000000000000000000000000000000006000830152602082019050919050565b6000612aae601283612eb8565b91507f546f6b656e20616c7265616479207573656400000000000000000000000000006000830152602082019050919050565b6000612aee601183612eb8565b91507f497373756572206e6f74206163746976650000000000000000000000000000006000830152602082019050919050565b6000612b2e601683612eb8565b91507f526567697374726174696f6e206e6f7420666f756e64000000000000000000006000830152602082019050919050565b6000612b6e601583612eb8565b91507f4372656420616c72656164792075706c6f6164656400000000000000000000006000830152602082019050919050565b6000612bae601383612eb8565b91507f416c726561647920696e697469616c697a6564000000000000000000000000006000830152602082019050919050565b612bea81612f11565b82525050565b6000602082019050612c05600083018461281d565b92915050565b6000602082019050612c20600083018461282c565b92915050565b60006020820190508181036000830152612c4181848661283b565b90509392505050565b60006020820190508181036000830152612c648184612868565b905092915050565b60006040820190508181036000830152612c868185612868565b9050612c95602083018461282c565b9392505050565b60006060820190508181036000830152612cb68186612868565b90508181036020830152612cca8185612868565b9050612cd9604083018461282c565b949350505050565b60006020820190508181036000830152612cfa816128a1565b9050919050565b60006020820190508181036000830152612d1a816128e1565b9050919050565b60006020820190508181036000830152612d3a81612921565b9050919050565b60006020820190508181036000830152612d5a81612961565b9050919050565b60006020820190508181036000830152612d7a816129a1565b9050919050565b60006020820190508181036000830152612d9a816129e1565b9050919050565b60006020820190508181036000830152612dba81612a21565b9050919050565b60006020820190508181036000830152612dda81612a61565b9050919050565b60006020820190508181036000830152612dfa81612aa1565b9050919050565b60006020820190508181036000830152612e1a81612ae1565b9050919050565b60006020820190508181036000830152612e3a81612b21565b9050919050565b60006020820190508181036000830152612e5a81612b61565b9050919050565b60006020820190508181036000830152612e7a81612ba1565b9050919050565b6000602082019050612e966000830184612be1565b92915050565b600081519050919050565b600082825260208201905092915050565b600082825260208201905092915050565b6000612ed482612ef1565b9050919050565b60008115159050919050565b6000819050919050565b600073ffffffffffffffffffffffffffffffffffffffff82169050919050565b6000819050919050565b82818337600083830152505050565b60005b83811015612f48578082015181840152602081019050612f2d565b83811115612f57576000848401525b50505050565b60006002820490506001821680612f7557607f821691505b60208210811415612f8957612f88613007565b5b50919050565b6000612f9a82612f11565b91507fffffffffffffffffffffffffffffffffffffffffffffffffffffffffffffffff821415612fcd57612fcc612fd8565b5b600182019050919050565b7f4e487b7100000000000000000000000000000000000000000000000000000000600052601160045260246000fd5b7f4e487b7100000000000000000000000000000000000000000000000000000000600052602260045260246000fd5b6000601f19601f8301169050919050565b61305081612ee7565b811461305b57600080fd5b50565b61306781612f11565b811461307257600080fd5b5056fea264697066735822122063cea0fc007252010e02faebe1b5c7a92731cb33bb9f11241ffe18ac7ff4892564736f6c63430008000033",
  "immutableReferences": {},
  "source": "// SPDX-License-Identifier: MIT\npragma solidity ^0.8.0;\n\ncontract CredentialManager {\n    // ─── System State ───\n    address public ttp;\n    bool public initialized;\n\n    // Issuer info\n    struct IssuerInfo {\n        bytes ipk;          // Serialized issuer public key (G1 point hex)\n        bool isActive;\n    }\n\n    // Tracer info\n    struct TracerInfo {\n        bytes tpk;          // Serialized tracer public key (G2 point hex)\n        bool isActive;\n    }\n\n    // Registration info\n    struct Registration {\n        bytes regData;      // Serialized registration data\n        bool exists;\n    }\n\n    // Credential info\n    struct CredentialInfo {\n        bytes credData;     // Serialized partial credential\n        bool uploaded;\n    }\n\n    // Token info\n    struct TokenInfo {\n        bytes tokData;      // Serialized anonymous token\n        bytes voteId;       // Associated vote ID\n        bool used;\n    }\n\n    // Revocation info\n    struct RevocationInfo {\n        bytes revData;      // Revocation value (G1 point hex)\n        bool revoked;\n    }\n\n    // Temporary values for multi-step computations (Fig.14: Ti, ID, Qi)\n    mapping(bytes32 => bytes) public tValues;\n    mapping(bytes32 => bytes) public iDValues;\n    mapping(bytes32 => bytes) public qValues;\n\n    // Storage mappings\n    mapping(uint256 => IssuerInfo) public issuers;\n    mapping(uint256 => TracerInfo) public tracers;\n    mapping(bytes32 => Registration) public registrations;       // regHash => Registration\n    mapping(bytes32 => RevocationInfo) public revocations;       // regHash => Revocation\n    mapping(bytes32 => mapping(uint256 => CredentialInfo)) public credentials; // regHash => issuerId => Credential\n    mapping(bytes32 => TokenInfo) public tokens;                 // tokHash => Token\n\n    uint256 public issuerCount;\n    uint256 public tracerCount;\n\n    // ─── Events ───\n    event Initialized(bytes ppHash);\n    event IssuerAdded(uint256 indexed issuerId, bytes ipk);\n    event TracerAdded(uint256 indexed tracerId, bytes tpk);\n    event RegUploaded(bytes32 indexed regHash);\n    event CredUploaded(bytes32 indexed regHash, uint256 issuerId);\n    event TokenUploaded(bytes32 indexed tokHash);\n    event RevUploaded(bytes32 indexed regHash);\n\n    modifier onlyTTP() {\n        require(msg.sender == ttp, \"Only TTP can call\");\n        _;\n    }\n\n    modifier whenInitialized() {\n        require(initialized, \"Not initialized\");\n        _;\n    }\n\n    constructor() {\n        ttp = msg.sender;\n    }\n\n    // ─── Create: Initialize system with public parameters ───\n    function Create(bytes calldata ppHash) external onlyTTP {\n        require(!initialized, \"Already initialized\");\n        initialized = true;\n        emit Initialized(ppHash);\n    }\n\n    // ─── AddIssuer: Register an issuer ───\n    function AddIssuer(bytes calldata ipk) external onlyTTP whenInitialized {\n        issuerCount++;\n        issuers[issuerCount] = IssuerInfo(ipk, true);\n        emit IssuerAdded(issuerCount, ipk);\n    }\n\n    // ─── AddTracer: Register a tracer ───\n    function AddTracer(bytes calldata tpk) external onlyTTP whenInitialized {\n        tracerCount++;\n        tracers[tracerCount] = TracerInfo(tpk, true);\n        emit TracerAdded(tracerCount, tpk);\n    }\n\n    // ─── uploadReg: Store registration data ───\n    function uploadReg(bytes32 regHash, bytes calldata regData) external whenInitialized {\n        require(!registrations[regHash].exists, \"Already registered\");\n        registrations[regHash] = Registration(regData, true);\n        emit RegUploaded(regHash);\n    }\n\n    // ─── getReg: Retrieve registration data ───\n    function getReg(bytes32 regHash) external view whenInitialized returns (bytes memory) {\n        require(registrations[regHash].exists, \"Registration not found\");\n        return registrations[regHash].regData;\n    }\n\n    // ─── uploadCred: Issuer uploads partial credential ───\n    function uploadCred(bytes32 regHash, uint256 issuerId, bytes calldata credData) external whenInitialized {\n        require(registrations[regHash].exists, \"User not registered\");\n        require(issuers[issuerId].isActive, \"Issuer not active\");\n        require(!credentials[regHash][issuerId].uploaded, \"Cred already uploaded\");\n        credentials[regHash][issuerId] = CredentialInfo(credData, true);\n        emit CredUploaded(regHash, issuerId);\n    }\n\n    // ─── getCred: Retrieve partial credential ───\n    function getCred(bytes32 regHash, uint256 issuerId) external view whenInitialized returns (bytes memory) {\n        require(credentials[regHash][issuerId].uploaded, \"Credential not found\");\n        return credentials[regHash][issuerId].credData;\n    }\n\n    // ─── uploadToken: Store anonymous token ───\n    function uploadToken(bytes32 tokHash, bytes calldata tokData) external whenInitialized {\n        require(!tokens[tokHash].used, \"Token already used\");\n        tokens[tokHash] = TokenInfo(tokData, \"\", true);\n        emit TokenUploaded(tokHash);\n    }\n\n    // ─── getToken: Retrieve token data ───\n    function getToken(bytes32 tokHash) external view whenInitialized returns (bytes memory) {\n        require(tokens[tokHash].used, \"Token not found\");\n        return tokens[tokHash].tokData;\n    }\n\n    // ─── uploadTi / getTi: Temp values ───\n    function uploadTi(bytes32 key, bytes calldata value) external whenInitialized {\n        tValues[key] = value;\n    }\n\n    function getTi(bytes32 key) external view whenInitialized returns (bytes memory) {\n        return tValues[key];\n    }\n\n    // ─── uploadID / getID: Identity values ───\n    function uploadID(bytes32 key, bytes calldata value) external whenInitialized {\n        iDValues[key] = value;\n    }\n\n    function getID(bytes32 key) external view whenInitialized returns (bytes memory) {\n        return iDValues[key];\n    }\n\n    // ─── uploadQi / getQi: Quotient values ───\n    function uploadQi(bytes32 key, bytes calldata value) external whenInitialized {\n        qValues[key] = value;\n    }\n\n    function getQi(bytes32 key) external view whenInitialized returns (bytes memory) {\n        return qValues[key];\n    }\n\n    // ─── uploadRev: Store revocation data ───\n    function uploadRev(bytes32 regHash, bytes calldata revData) external whenInitialized {\n        require(registrations[regHash].exists, \"User not found\");\n        revocations[regHash] = RevocationInfo(revData, true);\n        emit RevUploaded(regHash);\n    }\n\n    // ─── getRev: Check if user is revoked ───\n    function getRev(bytes32 regHash) external view whenInitialized returns (bytes memory) {\n        require(revocations[regHash].revoked, \"Not revoked\");\n        return revocations[regHash].revData;\n    }\n\n    // ─── isRevoked: Quick revocation check ───\n    function isRevoked(bytes32 regHash) external view whenInitialized returns (bool) {\n        return revocations[regHash].revoked;\n    }\n\n    // ─── getIssuerCount / getTracerCount ───\n    function getIssuerCount() external view returns (uint256) {\n        return issuerCount;\n    }\n\n    function getTracerCount() external view returns (uint256) {\n        return tracerCount;\n    }\n}",
  "sourcePath": "E:\\Coding\\Code\\Vue\\blockvote\\contracts\\CredentialManager.sol",
  "compiler": {
    "name": "solc",
    "version": "0.8.0+commit.c7dfd78e.Emscripten.clang"
  },
  "schemaVersion": "3.4.16",
  "updatedAt": "2026-05-19T07:19:08.460Z",
  "networkType": "ethereum",
  "devdoc": {
    "kind": "dev",
    "methods": {},
    "version": 1
  },
  "userdoc": {
    "kind": "user",
    "methods": {},
    "version": 1
  }
}