{
  "contractName": "VotingSystem",
  "abi": [
    {
      "anonymous": false,
      "inputs": [
        {
          "indexed": true,
          "internalType": "address",
          "name": "creator",
          "type": "address"
        },
        {
          "indexed": false,
          "internalType": "string",
          "name": "title",
          "type": "string"
        },
        {
          "indexed": false,
          "internalType": "uint256",
          "name": "deadline",
          "type": "uint256"
        }
      ],
      "name": "BallotCreated",
      "type": "event"
    },
    {
      "anonymous": false,
      "inputs": [
        {
          "indexed": true,
          "internalType": "address",
          "name": "voter",
          "type": "address"
        },
        {
          "indexed": false,
          "internalType": "uint256",
          "name": "result",
          "type": "uint256"
        }
      ],
      "name": "VoteCasted",
      "type": "event"
    },
    {
      "inputs": [],
      "name": "latestBallot",
      "outputs": [
        {
          "internalType": "string",
          "name": "title",
          "type": "string"
        },
        {
          "internalType": "uint256",
          "name": "deadline",
          "type": "uint256"
        },
        {
          "internalType": "bool",
          "name": "isOpen",
          "type": "bool"
        }
      ],
      "stateMutability": "view",
      "type": "function",
      "constant": true
    },
    {
      "inputs": [
        {
          "internalType": "string",
          "name": "_title",
          "type": "string"
        },
        {
          "internalType": "string[]",
          "name": "_options",
          "type": "string[]"
        },
        {
          "internalType": "uint256",
          "name": "_deadline",
          "type": "uint256"
        }
      ],
      "name": "createBallot",
      "outputs": [],
      "stateMutability": "nonpayable",
      "type": "function"
    },
    {
      "inputs": [
        {
          "internalType": "string",
          "name": "_title",
          "type": "string"
        }
      ],
      "name": "setTitle",
      "outputs": [],
      "stateMutability": "nonpayable",
      "type": "function"
    },
    {
      "inputs": [
        {
          "internalType": "string[]",
          "name": "_options",
          "type": "string[]"
        }
      ],
      "name": "setOptions",
      "outputs": [],
      "stateMutability": "nonpayable",
      "type": "function"
    },
    {
      "inputs": [
        {
          "internalType": "uint256",
          "name": "_deadline",
          "type": "uint256"
        }
      ],
      "name": "setDeadline",
      "outputs": [],
      "stateMutability": "nonpayable",
      "type": "function"
    },
    {
      "inputs": [
        {
          "internalType": "bool",
          "name": "_isOpen",
          "type": "bool"
        }
      ],
      "name": "setIsOpen",
      "outputs": [],
      "stateMutability": "nonpayable",
      "type": "function"
    },
    {
      "inputs": [
        {
          "internalType": "string",
          "name": "_option",
          "type": "string"
        }
      ],
      "name": "castVote",
      "outputs": [],
      "stateMutability": "nonpayable",
      "type": "function"
    },
    {
      "inputs": [],
      "name": "finalizeBallot",
      "outputs": [],
      "stateMutability": "nonpayable",
      "type": "function"
    },
    {
      "inputs": [
        {
          "internalType": "address",
          "name": "_voter",
          "type": "address"
        }
      ],
      "name": "hasVotedForBallot",
      "outputs": [
        {
          "internalType": "bool",
          "name": "",
          "type": "bool"
        }
      ],
      "stateMutability": "view",
      "type": "function",
      "constant": true
    },
    {
      "inputs": [],
      "name": "getOptions",
      "outputs": [
        {
          "internalType": "string[]",
          "name": "",
          "type": "string[]"
        }
      ],
      "stateMutability": "view",
      "type": "function",
      "constant": true
    },
    {
      "inputs": [],
      "name": "getBallotTitle",
      "outputs": [
        {
          "internalType": "string",
          "name": "",
          "type": "string"
        }
      ],
      "stateMutability": "view",
      "type": "function",
      "constant": true
    },
    {
      "inputs": [],
      "name": "getDeadline",
      "outputs": [
        {
          "internalType": "uint256",
          "name": "",
          "type": "uint256"
        }
      ],
      "stateMutability": "view",
      "type": "function",
      "constant": true
    },
    {
      "inputs": [],
      "name": "getCurrentTimestamp",
      "outputs": [
        {
          "internalType": "uint256",
          "name": "",
          "type": "uint256"
        }
      ],
      "stateMutability": "view",
      "type": "function",
      "constant": true
    },
    {
      "inputs": [],
      "name": "getIsOpen",
      "outputs": [
        {
          "internalType": "bool",
          "name": "",
          "type": "bool"
        }
      ],
      "stateMutability": "view",
      "type": "function",
      "constant": true
    },
    {
      "inputs": [],
      "name": "getWinner",
      "outputs": [
        {
          "internalType": "string",
          "name": "",
          "type": "string"
        }
      ],
      "stateMutability": "view",
      "type": "function",
      "constant": true
    },
    {
      "inputs": [],
      "name": "getVoteCounts",
      "outputs": [
        {
          "internalType": "uint256[]",
          "name": "",
          "type": "uint256[]"
        }
      ],
      "stateMutability": "view",
      "type": "function",
      "constant": true
    }
  ],
  "bytecode": "0x608060405234801561001057600080fd5b506119c5806100206000396000f3fe608060405234801561001057600080fd5b50600436106101005760003560e01c80638185d9da11610097578063cc2ee19611610066578063cc2ee19614610275578063d4f8ecb814610293578063f5c895401461029d578063ffc97b20146102bb57610100565b80638185d9da146102015780638e7ea5b21461021d5780639cc2d9931461023b578063b1b0be2f1461025757610100565b806320faae8e116100d357806320faae8e1461018d5780635f8d96de146101a95780636c9230db146101c757806372910be0146101e557610100565b8063085a10cf146101055780630c0e579c14610121578063195199f6146101515780631a18d4cb1461016d575b600080fd5b61011f600480360381019061011a9190610f81565b6102d9565b005b61013b60048036038101906101369190610f17565b6102f9565b60405161014891906114c8565b60405180910390f35b61016b6004803603810190610166919061106a565b610351565b005b61017561035e565b60405161018493929190611550565b60405180910390f35b6101a760048036038101906101a29190610feb565b61040b565b005b6101b161050e565b6040516101be919061162e565b60405180910390f35b6101cf61051a565b6040516101dc919061162e565b60405180910390f35b6101ff60048036038101906101fa9190610faa565b610522565b005b61021b60048036038101906102169190610f40565b61053e565b005b61022561055b565b60405161023291906114fe565b60405180910390f35b61025560048036038101906102509190610faa565b610775565b005b61025f61093b565b60405161026c91906114c8565b60405180910390f35b61027d610954565b60405161028a9190611484565b60405180910390f35b61029b610a30565b005b6102a5610a97565b6040516102b291906114fe565b60405180910390f35b6102c3610b2b565b6040516102d091906114a6565b60405180910390f35b80600060030160006101000a81548160ff02191690831515021790555050565b60008060050160008373ffffffffffffffffffffffffffffffffffffffff1673ffffffffffffffffffffffffffffffffffffffff16815260200190815260200160002060009054906101000a900460ff169050919050565b8060006002018190555050565b600080600001805461036f90611831565b80601f016020809104026020016040519081016040528092919081815260200182805461039b90611831565b80156103e85780601f106103bd576101008083540402835291602001916103e8565b820191906000526020600020905b8154815290600101906020018083116103cb57829003601f168201915b5050505050908060020154908060030160009054906101000a900460ff16905083565b600282511015801561041f5750600a825111155b61045e576040517f08c379a0000000000000000000000000000000000000000000000000000000008152600401610455906115ee565b60405180910390fd5b82600080019080519060200190610476929190610c82565b508160006001019080519060200190610490929190610d08565b50806000600201819055506001600060030160006101000a81548160ff0219169083151502179055503373ffffffffffffffffffffffffffffffffffffffff167f33651da1dde26b11d4dcbde158f590e919346c7d214ff99ccbbf1d0e0fc335ea8483604051610501929190611520565b60405180910390a2505050565b60008060020154905090565b600042905090565b8060008001908051906020019061053a929190610c82565b5050565b8060006001019080519060200190610557929190610d08565b5050565b6060600060030160009054906101000a900460ff16156105b0576040517f08c379a00000000000000000000000000000000000000000000000000000000081526004016105a79061158e565b60405180910390fd5b6000600201544210156105f8576040517f08c379a00000000000000000000000000000000000000000000000000000000081526004016105ef906115ce565b60405180910390fd5b6000606060005b60006001018054905081101561076c5760008060040160006001018381548110610652577f4e487b7100000000000000000000000000000000000000000000000000000000600052603260045260246000fd5b90600052602060002001604051610669919061146d565b90815260200160405180910390205490508381111561075857809350600060010182815481106106c2577f4e487b7100000000000000000000000000000000000000000000000000000000600052603260045260246000fd5b9060005260206000200180546106d790611831565b80601f016020809104026020016040519081016040528092919081815260200182805461070390611831565b80156107505780601f1061072557610100808354040283529160200191610750565b820191906000526020600020905b81548152906001019060200180831161073357829003601f168201915b505050505092505b50808061076490611863565b9150506105ff565b50809250505090565b600060050160003373ffffffffffffffffffffffffffffffffffffffff1673ffffffffffffffffffffffffffffffffffffffff16815260200190815260200160002060009054906101000a900460ff1615610805576040517f08c379a00000000000000000000000000000000000000000000000000000000081526004016107fc906115ae565b60405180910390fd5b600060030160009054906101000a900460ff16610857576040517f08c379a000000000000000000000000000000000000000000000000000000000815260040161084e9061160e565b60405180910390fd5b60006004018160405161086a9190611456565b9081526020016040518091039020600081548092919061088990611863565b91905055506001600060050160003373ffffffffffffffffffffffffffffffffffffffff1673ffffffffffffffffffffffffffffffffffffffff16815260200190815260200160002060006101000a81548160ff0219169083151502179055503373ffffffffffffffffffffffffffffffffffffffff167fd0e6c39f2e086dc49f1524b47725526a56945cd1ff661f37976f1725a1e56986600160405161093091906114e3565b60405180910390a250565b60008060030160009054906101000a900460ff16905090565b60606000600101805480602002602001604051908101604052809291908181526020016000905b82821015610a2757838290600052602060002001805461099a90611831565b80601f01602080910402602001604051908101604052809291908181526020018280546109c690611831565b8015610a135780601f106109e857610100808354040283529160200191610a13565b820191906000526020600020905b8154815290600101906020018083116109f657829003601f168201915b50505050508152602001906001019061097b565b50505050905090565b600060020154421015610a78576040517f08c379a0000000000000000000000000000000000000000000000000000000008152600401610a6f9061158e565b60405180910390fd5b60008060030160006101000a81548160ff021916908315150217905550565b6060600080018054610aa890611831565b80601f0160208091040260200160405190810160405280929190818152602001828054610ad490611831565b8015610b215780601f10610af657610100808354040283529160200191610b21565b820191906000526020600020905b815481529060010190602001808311610b0457829003601f168201915b5050505050905090565b60606000806001018054905067ffffffffffffffff811115610b76577f4e487b7100000000000000000000000000000000000000000000000000000000600052604160045260246000fd5b604051908082528060200260200182016040528015610ba45781602001602082028036833780820191505090505b50905060005b600060010180549050811015610c7a57600060040160006001018281548110610bfc577f4e487b7100000000000000000000000000000000000000000000000000000000600052603260045260246000fd5b90600052602060002001604051610c13919061146d565b908152602001604051809103902054828281518110610c5b577f4e487b7100000000000000000000000000000000000000000000000000000000600052603260045260246000fd5b6020026020010181815250508080610c7290611863565b915050610baa565b508091505090565b828054610c8e90611831565b90600052602060002090601f016020900481019282610cb05760008555610cf7565b82601f10610cc957805160ff1916838001178555610cf7565b82800160010185558215610cf7579182015b82811115610cf6578251825591602001919060010190610cdb565b5b509050610d049190610d68565b5090565b828054828255906000526020600020908101928215610d57579160200282015b82811115610d56578251829080519060200190610d46929190610c82565b5091602001919060010190610d28565b5b509050610d649190610d85565b5090565b5b80821115610d81576000816000905550600101610d69565b5090565b5b80821115610da55760008181610d9c9190610da9565b50600101610d86565b5090565b508054610db590611831565b6000825580601f10610dc75750610de6565b601f016020900490600052602060002090810190610de59190610d68565b5b50565b6000610dfc610df78461167a565b611649565b9050808382526020820190508260005b85811015610e3c5781358501610e228882610ed8565b845260208401935060208301925050600181019050610e0c565b5050509392505050565b6000610e59610e54846116a6565b611649565b905082815260208101848484011115610e7157600080fd5b610e7c8482856117ef565b509392505050565b600081359050610e938161194a565b92915050565b600082601f830112610eaa57600080fd5b8135610eba848260208601610de9565b91505092915050565b600081359050610ed281611961565b92915050565b600082601f830112610ee957600080fd5b8135610ef9848260208601610e46565b91505092915050565b600081359050610f1181611978565b92915050565b600060208284031215610f2957600080fd5b6000610f3784828501610e84565b91505092915050565b600060208284031215610f5257600080fd5b600082013567ffffffffffffffff811115610f6c57600080fd5b610f7884828501610e99565b91505092915050565b600060208284031215610f9357600080fd5b6000610fa184828501610ec3565b91505092915050565b600060208284031215610fbc57600080fd5b600082013567ffffffffffffffff811115610fd657600080fd5b610fe284828501610ed8565b91505092915050565b60008060006060848603121561100057600080fd5b600084013567ffffffffffffffff81111561101a57600080fd5b61102686828701610ed8565b935050602084013567ffffffffffffffff81111561104357600080fd5b61104f86828701610e99565b925050604061106086828701610f02565b9150509250925092565b60006020828403121561107c57600080fd5b600061108a84828501610f02565b91505092915050565b600061109f83836111b0565b905092915050565b60006110b38383611438565b60208301905092915050565b60006110ca8261170b565b6110d48185611746565b9350836020820285016110e6856116d6565b8060005b8581101561112257848403895281516111038582611093565b945061110e8361172c565b925060208a019950506001810190506110ea565b50829750879550505050505092915050565b600061113f82611716565b6111498185611757565b9350611154836116e6565b8060005b8381101561118557815161116c88826110a7565b975061117783611739565b925050600181019050611158565b5085935050505092915050565b61119b816117a7565b82525050565b6111aa816117dd565b82525050565b60006111bb82611721565b6111c58185611768565b93506111d58185602086016117fe565b6111de81611939565b840191505092915050565b60006111f482611721565b6111fe8185611779565b935061120e8185602086016117fe565b61121781611939565b840191505092915050565b600061122d82611721565b611237818561178a565b93506112478185602086016117fe565b80840191505092915050565b6000815461126081611831565b61126a818661178a565b945060018216600081146112855760018114611296576112c9565b60ff198316865281860193506112c9565b61129f856116f6565b60005b838110156112c1578154818901526001820191506020810190506112a2565b838801955050505b50505092915050565b60006112df601783611779565b91507f566f74696e67206973207374696c6c206f6e676f696e670000000000000000006000830152602082019050919050565b600061131f601783611779565b91507f596f75206861766520616c726561647920766f7465642e0000000000000000006000830152602082019050919050565b600061135f601883611779565b91507f566f74696e6720686173206e6f7420656e6465642079657400000000000000006000830152602082019050919050565b600061139f602a83611779565b91507f4e756d626572206f66206f7074696f6e73206d7573742062652062657477656560008301527f6e203220616e64203130000000000000000000000000000000000000000000006020830152604082019050919050565b6000611405601b83611779565b91507f566f74696e672068617320616c72656164792066696e697368656400000000006000830152602082019050919050565b611441816117d3565b82525050565b611450816117d3565b82525050565b60006114628284611222565b915081905092915050565b60006114798284611253565b915081905092915050565b6000602082019050818103600083015261149e81846110bf565b905092915050565b600060208201905081810360008301526114c08184611134565b905092915050565b60006020820190506114dd6000830184611192565b92915050565b60006020820190506114f860008301846111a1565b92915050565b6000602082019050818103600083015261151881846111e9565b905092915050565b6000604082019050818103600083015261153a81856111e9565b90506115496020830184611447565b9392505050565b6000606082019050818103600083015261156a81866111e9565b90506115796020830185611447565b6115866040830184611192565b949350505050565b600060208201905081810360008301526115a7816112d2565b9050919050565b600060208201905081810360008301526115c781611312565b9050919050565b600060208201905081810360008301526115e781611352565b9050919050565b6000602082019050818103600083015261160781611392565b9050919050565b60006020820190508181036000830152611627816113f8565b9050919050565b60006020820190506116436000830184611447565b92915050565b6000604051905081810181811067ffffffffffffffff821117156116705761166f61190a565b5b8060405250919050565b600067ffffffffffffffff8211156116955761169461190a565b5b602082029050602081019050919050565b600067ffffffffffffffff8211156116c1576116c061190a565b5b601f19601f8301169050602081019050919050565b6000819050602082019050919050565b6000819050602082019050919050565b60008190508160005260206000209050919050565b600081519050919050565b600081519050919050565b600081519050919050565b6000602082019050919050565b6000602082019050919050565b600082825260208201905092915050565b600082825260208201905092915050565b600082825260208201905092915050565b600082825260208201905092915050565b600081905092915050565b60006117a0826117b3565b9050919050565b60008115159050919050565b600073ffffffffffffffffffffffffffffffffffffffff82169050919050565b6000819050919050565b60006117e8826117d3565b9050919050565b82818337600083830152505050565b60005b8381101561181c578082015181840152602081019050611801565b8381111561182b576000848401525b50505050565b6000600282049050600182168061184957607f821691505b6020821081141561185d5761185c6118db565b5b50919050565b600061186e826117d3565b91507fffffffffffffffffffffffffffffffffffffffffffffffffffffffffffffffff8214156118a1576118a06118ac565b5b600182019050919050565b7f4e487b7100000000000000000000000000000000000000000000000000000000600052601160045260246000fd5b7f4e487b7100000000000000000000000000000000000000000000000000000000600052602260045260246000fd5b7f4e487b7100000000000000000000000000000000000000000000000000000000600052604160045260246000fd5b6000601f19601f8301169050919050565b61195381611795565b811461195e57600080fd5b50565b61196a816117a7565b811461197557600080fd5b50565b611981816117d3565b811461198c57600080fd5b5056fea26469706673582212204221272b693b9691aafc19411342af668b0ee1fa30d4dab9117c28619008430a64736f6c63430008000033",
  "immutableReferences": {},
  "source": "// SPDX-License-Identifier: MIT\r\npragma solidity ^0.8.0;\r\n\r\ncontract VotingSystem {\r\n    struct Ballot {\r\n        string title;\r\n        string[] options;\r\n        uint256 deadline;\r\n        bool isOpen;\r\n        mapping(string => uint256) voteCounts;\r\n        mapping(address => bool) hasVoted; // 记录用户是否已经投票\r\n    }\r\n\r\n    Ballot public latestBallot; // 最新部署的合约的投票项目信息\r\n\r\n    event BallotCreated(address indexed creator, string title, uint256 deadline);\r\n    event VoteCasted(address indexed voter, uint256 result);\r\n\r\n    function createBallot(string memory _title, string[] memory _options, uint256 _deadline) public {\r\n        require(_options.length >= 2 && _options.length <= 10, \"Number of options must be between 2 and 10\");\r\n        latestBallot.title = _title;\r\n        latestBallot.options = _options;\r\n        latestBallot.deadline = _deadline;\r\n        latestBallot.isOpen = true;\r\n\r\n        emit BallotCreated(msg.sender, _title, _deadline);\r\n    }\r\n\r\n    function setTitle(string memory _title) public {\r\n        latestBallot.title = _title;\r\n    }\r\n\r\n    function setOptions(string[] memory _options) public {\r\n        latestBallot.options = _options;\r\n    }\r\n\r\n    function setDeadline(uint256 _deadline) public {\r\n        latestBallot.deadline = _deadline;\r\n    }\r\n\r\n    function setIsOpen(bool _isOpen) public {\r\n        latestBallot.isOpen = _isOpen;\r\n    }\r\n\r\n    function castVote(string memory _option) public {\r\n        require(!latestBallot.hasVoted[msg.sender], \"You have already voted.\");\r\n        require(latestBallot.isOpen, \"Voting has already finished\");\r\n        latestBallot.voteCounts[_option]++;\r\n        latestBallot.hasVoted[msg.sender] = true; // 记录用户已经投票\r\n\r\n        emit VoteCasted(msg.sender, 1); // 1 表示投票成功\r\n    }\r\n\r\n    function finalizeBallot() public {\r\n        require(block.timestamp >= latestBallot.deadline, \"Voting is still ongoing\");\r\n        latestBallot.isOpen = false;\r\n    }\r\n\r\n    // 判断某个用户是否已经对该合约进行投票\r\n    function hasVotedForBallot(address _voter) public view returns (bool) {\r\n        return latestBallot.hasVoted[_voter];\r\n    }\r\n\r\n    // 获取最新投票项目的候选项列表\r\n    function getOptions() public view returns (string[] memory) {\r\n        return latestBallot.options;\r\n    }\r\n\r\n    // 获取最新投票项目的投票项目名\r\n    function getBallotTitle() public view returns (string memory) {\r\n        return latestBallot.title;\r\n    }\r\n\r\n    // 获取最新投票项目的截止日期\r\n    function getDeadline() public view returns (uint256) {\r\n        return latestBallot.deadline;\r\n    }\r\n\r\n    // 获取当前的时间戳\r\n    function getCurrentTimestamp() public view returns (uint256) {\r\n        return block.timestamp;\r\n    }\r\n\r\n    function getIsOpen() public view returns (bool) {\r\n        return latestBallot.isOpen;\r\n    }\r\n\r\n    function getWinner() public view returns (string memory) {\r\n        require(!latestBallot.isOpen, \"Voting is still ongoing\");\r\n        require(block.timestamp >= latestBallot.deadline, \"Voting has not ended yet\");\r\n\r\n        uint256 maxVotes = 0;\r\n        string memory winner;\r\n        \r\n        // 遍历所有选项，找到获胜者\r\n        for (uint256 i = 0; i < latestBallot.options.length; i++) {\r\n            uint256 votes = latestBallot.voteCounts[latestBallot.options[i]];\r\n            if (votes > maxVotes) {\r\n                maxVotes = votes;\r\n                winner = latestBallot.options[i];\r\n            }\r\n        }\r\n        return winner;\r\n    }\r\n\r\n    // 获取每个候选项的得票数\r\n    function getVoteCounts() public view returns (uint256[] memory) {\r\n        uint256[] memory counts = new uint256[](latestBallot.options.length);\r\n        for (uint256 i = 0; i < latestBallot.options.length; i++) {\r\n            counts[i] = latestBallot.voteCounts[latestBallot.options[i]];\r\n        }\r\n        return counts;\r\n    }\r\n}\r\n",
  "sourcePath": "E:\\Coding\\Code\\Vue\\blockvote\\contracts\\VotingSystem.sol",
  "compiler": {
    "name": "solc",
    "version": "0.8.0+commit.c7dfd78e.Emscripten.clang"
  },
  "schemaVersion": "3.4.16",
  "updatedAt": "2026-04-12T10:42:19.614Z",
  "networkType": "ethereum",
  "devdoc": {
    "kind": "dev",
    "methods": {},
    "version": 1
  },
  "userdoc": {
    "kind": "user",
    "methods": {},
    "version": 1
  }
}