{
  "contractName": "VotingSystem",
  "abi": [
    {
      "anonymous": false,
      "inputs": [
        {
          "indexed": true,
          "internalType": "address",
          "name": "creator",
          "type": "address"
        },
        {
          "indexed": false,
          "internalType": "string",
          "name": "title",
          "type": "string"
        },
        {
          "indexed": false,
          "internalType": "uint256",
          "name": "deadline",
          "type": "uint256"
        }
      ],
      "name": "BallotCreated",
      "type": "event"
    },
    {
      "anonymous": false,
      "inputs": [
        {
          "indexed": true,
          "internalType": "address",
          "name": "voter",
          "type": "address"
        },
        {
          "indexed": false,
          "internalType": "uint256",
          "name": "result",
          "type": "uint256"
        }
      ],
      "name": "VoteCasted",
      "type": "event"
    },
    {
      "inputs": [],
      "name": "latestBallot",
      "outputs": [
        {
          "internalType": "string",
          "name": "title",
          "type": "string"
        },
        {
          "internalType": "uint256",
          "name": "deadline",
          "type": "uint256"
        },
        {
          "internalType": "bool",
          "name": "isOpen",
          "type": "bool"
        }
      ],
      "stateMutability": "view",
      "type": "function",
      "constant": true
    },
    {
      "inputs": [
        {
          "internalType": "bytes32",
          "name": "",
          "type": "bytes32"
        }
      ],
      "name": "usedTokens",
      "outputs": [
        {
          "internalType": "bool",
          "name": "",
          "type": "bool"
        }
      ],
      "stateMutability": "view",
      "type": "function",
      "constant": true
    },
    {
      "inputs": [
        {
          "internalType": "string",
          "name": "_title",
          "type": "string"
        },
        {
          "internalType": "string[]",
          "name": "_options",
          "type": "string[]"
        },
        {
          "internalType": "uint256",
          "name": "_deadline",
          "type": "uint256"
        }
      ],
      "name": "createBallot",
      "outputs": [],
      "stateMutability": "nonpayable",
      "type": "function"
    },
    {
      "inputs": [
        {
          "internalType": "string",
          "name": "_title",
          "type": "string"
        }
      ],
      "name": "setTitle",
      "outputs": [],
      "stateMutability": "nonpayable",
      "type": "function"
    },
    {
      "inputs": [
        {
          "internalType": "string[]",
          "name": "_options",
          "type": "string[]"
        }
      ],
      "name": "setOptions",
      "outputs": [],
      "stateMutability": "nonpayable",
      "type": "function"
    },
    {
      "inputs": [
        {
          "internalType": "uint256",
          "name": "_deadline",
          "type": "uint256"
        }
      ],
      "name": "setDeadline",
      "outputs": [],
      "stateMutability": "nonpayable",
      "type": "function"
    },
    {
      "inputs": [
        {
          "internalType": "bool",
          "name": "_isOpen",
          "type": "bool"
        }
      ],
      "name": "setIsOpen",
      "outputs": [],
      "stateMutability": "nonpayable",
      "type": "function"
    },
    {
      "inputs": [
        {
          "internalType": "string",
          "name": "_option",
          "type": "string"
        }
      ],
      "name": "castVote",
      "outputs": [],
      "stateMutability": "nonpayable",
      "type": "function"
    },
    {
      "inputs": [
        {
          "internalType": "string",
          "name": "_option",
          "type": "string"
        },
        {
          "internalType": "bytes32",
          "name": "tokHash",
          "type": "bytes32"
        }
      ],
      "name": "castVoteAnon",
      "outputs": [],
      "stateMutability": "nonpayable",
      "type": "function"
    },
    {
      "inputs": [],
      "name": "finalizeBallot",
      "outputs": [],
      "stateMutability": "nonpayable",
      "type": "function"
    },
    {
      "inputs": [
        {
          "internalType": "address",
          "name": "_voter",
          "type": "address"
        }
      ],
      "name": "hasVotedForBallot",
      "outputs": [
        {
          "internalType": "bool",
          "name": "",
          "type": "bool"
        }
      ],
      "stateMutability": "view",
      "type": "function",
      "constant": true
    },
    {
      "inputs": [
        {
          "internalType": "bytes32",
          "name": "tokHash",
          "type": "bytes32"
        }
      ],
      "name": "hasTokenUsed",
      "outputs": [
        {
          "internalType": "bool",
          "name": "",
          "type": "bool"
        }
      ],
      "stateMutability": "view",
      "type": "function",
      "constant": true
    },
    {
      "inputs": [],
      "name": "getOptions",
      "outputs": [
        {
          "internalType": "string[]",
          "name": "",
          "type": "string[]"
        }
      ],
      "stateMutability": "view",
      "type": "function",
      "constant": true
    },
    {
      "inputs": [],
      "name": "getBallotTitle",
      "outputs": [
        {
          "internalType": "string",
          "name": "",
          "type": "string"
        }
      ],
      "stateMutability": "view",
      "type": "function",
      "constant": true
    },
    {
      "inputs": [],
      "name": "getDeadline",
      "outputs": [
        {
          "internalType": "uint256",
          "name": "",
          "type": "uint256"
        }
      ],
      "stateMutability": "view",
      "type": "function",
      "constant": true
    },
    {
      "inputs": [],
      "name": "getCurrentTimestamp",
      "outputs": [
        {
          "internalType": "uint256",
          "name": "",
          "type": "uint256"
        }
      ],
      "stateMutability": "view",
      "type": "function",
      "constant": true
    },
    {
      "inputs": [],
      "name": "getIsOpen",
      "outputs": [
        {
          "internalType": "bool",
          "name": "",
          "type": "bool"
        }
      ],
      "stateMutability": "view",
      "type": "function",
      "constant": true
    },
    {
      "inputs": [],
      "name": "getWinner",
      "outputs": [
        {
          "internalType": "string",
          "name": "",
          "type": "string"
        }
      ],
      "stateMutability": "view",
      "type": "function",
      "constant": true
    },
    {
      "inputs": [],
      "name": "getVoteCounts",
      "outputs": [
        {
          "internalType": "uint256[]",
          "name": "",
          "type": "uint256[]"
        }
      ],
      "stateMutability": "view",
      "type": "function",
      "constant": true
    }
  ],
  "bytecode": "0x608060405234801561001057600080fd5b50611d29806100206000396000f3fe608060405234801561001057600080fd5b50600436106101215760003560e01c806378962ec1116100ad578063cc2ee19611610071578063cc2ee196146102f6578063d4f8ecb814610314578063e2c4c45d1461031e578063f5c895401461033a578063ffc97b201461035857610121565b806378962ec1146102525780638185d9da146102825780638e7ea5b21461029e5780639cc2d993146102bc578063b1b0be2f146102d857610121565b806320faae8e116100f457806320faae8e146101ae57806330f3de74146101ca5780635f8d96de146101fa5780636c9230db1461021857806372910be01461023657610121565b8063085a10cf146101265780630c0e579c14610142578063195199f6146101725780631a18d4cb1461018e575b600080fd5b610140600480360381019061013b91906111e7565b610376565b005b61015c6004803603810190610157919061117d565b610396565b60405161016991906117eb565b60405180910390f35b61018c6004803603810190610187919061134d565b6103ee565b005b6101966103fb565b6040516101a593929190611873565b60405180910390f35b6101c860048036038101906101c3919061127a565b6104a8565b005b6101e460048036038101906101df9190611210565b6105ab565b6040516101f191906117eb565b60405180910390f35b6102026105cb565b60405161020f9190611971565b60405180910390f35b6102206105d7565b60405161022d9190611971565b60405180910390f35b610250600480360381019061024b9190611239565b6105df565b005b61026c60048036038101906102679190611210565b6105fb565b60405161027991906117eb565b60405180910390f35b61029c600480360381019061029791906111a6565b610625565b005b6102a6610642565b6040516102b39190611821565b60405180910390f35b6102d660048036038101906102d19190611239565b61085c565b005b6102e0610a22565b6040516102ed91906117eb565b60405180910390f35b6102fe610a3b565b60405161030b91906117a7565b60405180910390f35b61031c610b17565b005b610338600480360381019061033391906112f9565b610b7e565b005b610342610ce8565b60405161034f9190611821565b60405180910390f35b610360610d7c565b60405161036d91906117c9565b60405180910390f35b80600060030160006101000a81548160ff02191690831515021790555050565b60008060050160008373ffffffffffffffffffffffffffffffffffffffff1673ffffffffffffffffffffffffffffffffffffffff16815260200190815260200160002060009054906101000a900460ff169050919050565b8060006002018190555050565b600080600001805461040c90611b7e565b80601f016020809104026020016040519081016040528092919081815260200182805461043890611b7e565b80156104855780601f1061045a57610100808354040283529160200191610485565b820191906000526020600020905b81548152906001019060200180831161046857829003601f168201915b5050505050908060020154908060030160009054906101000a900460ff16905083565b60028251101580156104bc5750600a825111155b6104fb576040517f08c379a00000000000000000000000000000000000000000000000000000000081526004016104f290611911565b60405180910390fd5b82600080019080519060200190610513929190610ed3565b50816000600101908051906020019061052d929190610f59565b50806000600201819055506001600060030160006101000a81548160ff0219169083151502179055503373ffffffffffffffffffffffffffffffffffffffff167f33651da1dde26b11d4dcbde158f590e919346c7d214ff99ccbbf1d0e0fc335ea848360405161059e929190611843565b60405180910390a2505050565b60066020528060005260406000206000915054906101000a900460ff1681565b60008060020154905090565b600042905090565b806000800190805190602001906105f7929190610ed3565b5050565b60006006600083815260200190815260200160002060009054906101000a900460ff169050919050565b806000600101908051906020019061063e929190610f59565b5050565b6060600060030160009054906101000a900460ff1615610697576040517f08c379a000000000000000000000000000000000000000000000000000000000815260040161068e906118b1565b60405180910390fd5b6000600201544210156106df576040517f08c379a00000000000000000000000000000000000000000000000000000000081526004016106d6906118f1565b60405180910390fd5b6000606060005b6000600101805490508110156108535760008060040160006001018381548110610739577f4e487b7100000000000000000000000000000000000000000000000000000000600052603260045260246000fd5b906000526020600020016040516107509190611790565b90815260200160405180910390205490508381111561083f57809350600060010182815481106107a9577f4e487b7100000000000000000000000000000000000000000000000000000000600052603260045260246000fd5b9060005260206000200180546107be90611b7e565b80601f01602080910402602001604051908101604052809291908181526020018280546107ea90611b7e565b80156108375780601f1061080c57610100808354040283529160200191610837565b820191906000526020600020905b81548152906001019060200180831161081a57829003601f168201915b505050505092505b50808061084b90611bb0565b9150506106e6565b50809250505090565b600060050160003373ffffffffffffffffffffffffffffffffffffffff1673ffffffffffffffffffffffffffffffffffffffff16815260200190815260200160002060009054906101000a900460ff16156108ec576040517f08c379a00000000000000000000000000000000000000000000000000000000081526004016108e3906118d1565b60405180910390fd5b600060030160009054906101000a900460ff1661093e576040517f08c379a000000000000000000000000000000000000000000000000000000000815260040161093590611931565b60405180910390fd5b6000600401816040516109519190611779565b9081526020016040518091039020600081548092919061097090611bb0565b91905055506001600060050160003373ffffffffffffffffffffffffffffffffffffffff1673ffffffffffffffffffffffffffffffffffffffff16815260200190815260200160002060006101000a81548160ff0219169083151502179055503373ffffffffffffffffffffffffffffffffffffffff167fd0e6c39f2e086dc49f1524b47725526a56945cd1ff661f37976f1725a1e569866001604051610a179190611806565b60405180910390a250565b60008060030160009054906101000a900460ff16905090565b60606000600101805480602002602001604051908101604052809291908181526020016000905b82821015610b0e578382906000526020600020018054610a8190611b7e565b80601f0160208091040260200160405190810160405280929190818152602001828054610aad90611b7e565b8015610afa5780601f10610acf57610100808354040283529160200191610afa565b820191906000526020600020905b815481529060010190602001808311610add57829003601f168201915b505050505081526020019060010190610a62565b50505050905090565b600060020154421015610b5f576040517f08c379a0000000000000000000000000000000000000000000000000000000008152600401610b56906118b1565b60405180910390fd5b60008060030160006101000a81548160ff021916908315150217905550565b6006600082815260200190815260200160002060009054906101000a900460ff1615610bdf576040517f08c379a0000000000000000000000000000000000000000000000000000000008152600401610bd690611951565b60405180910390fd5b600060030160009054906101000a900460ff16610c31576040517f08c379a0000000000000000000000000000000000000000000000000000000008152600401610c2890611931565b60405180910390fd5b600060040182604051610c449190611779565b90815260200160405180910390206000815480929190610c6390611bb0565b919050555060016006600083815260200190815260200160002060006101000a81548160ff021916908315150217905550600073ffffffffffffffffffffffffffffffffffffffff167fd0e6c39f2e086dc49f1524b47725526a56945cd1ff661f37976f1725a1e569866001604051610cdc9190611806565b60405180910390a25050565b6060600080018054610cf990611b7e565b80601f0160208091040260200160405190810160405280929190818152602001828054610d2590611b7e565b8015610d725780601f10610d4757610100808354040283529160200191610d72565b820191906000526020600020905b815481529060010190602001808311610d5557829003601f168201915b5050505050905090565b60606000806001018054905067ffffffffffffffff811115610dc7577f4e487b7100000000000000000000000000000000000000000000000000000000600052604160045260246000fd5b604051908082528060200260200182016040528015610df55781602001602082028036833780820191505090505b50905060005b600060010180549050811015610ecb57600060040160006001018281548110610e4d577f4e487b7100000000000000000000000000000000000000000000000000000000600052603260045260246000fd5b90600052602060002001604051610e649190611790565b908152602001604051809103902054828281518110610eac577f4e487b7100000000000000000000000000000000000000000000000000000000600052603260045260246000fd5b6020026020010181815250508080610ec390611bb0565b915050610dfb565b508091505090565b828054610edf90611b7e565b90600052602060002090601f016020900481019282610f015760008555610f48565b82601f10610f1a57805160ff1916838001178555610f48565b82800160010185558215610f48579182015b82811115610f47578251825591602001919060010190610f2c565b5b509050610f559190610fb9565b5090565b828054828255906000526020600020908101928215610fa8579160200282015b82811115610fa7578251829080519060200190610f97929190610ed3565b5091602001919060010190610f79565b5b509050610fb59190610fd6565b5090565b5b80821115610fd2576000816000905550600101610fba565b5090565b5b80821115610ff65760008181610fed9190610ffa565b50600101610fd7565b5090565b50805461100690611b7e565b6000825580601f106110185750611037565b601f0160209004906000526020600020908101906110369190610fb9565b5b50565b600061104d611048846119bd565b61198c565b9050808382526020820190508260005b8581101561108d5781358501611073888261113e565b84526020840193506020830192505060018101905061105d565b5050509392505050565b60006110aa6110a5846119e9565b61198c565b9050828152602081018484840111156110c257600080fd5b6110cd848285611b3c565b509392505050565b6000813590506110e481611c97565b92915050565b600082601f8301126110fb57600080fd5b813561110b84826020860161103a565b91505092915050565b60008135905061112381611cae565b92915050565b60008135905061113881611cc5565b92915050565b600082601f83011261114f57600080fd5b813561115f848260208601611097565b91505092915050565b60008135905061117781611cdc565b92915050565b60006020828403121561118f57600080fd5b600061119d848285016110d5565b91505092915050565b6000602082840312156111b857600080fd5b600082013567ffffffffffffffff8111156111d257600080fd5b6111de848285016110ea565b91505092915050565b6000602082840312156111f957600080fd5b600061120784828501611114565b91505092915050565b60006020828403121561122257600080fd5b600061123084828501611129565b91505092915050565b60006020828403121561124b57600080fd5b600082013567ffffffffffffffff81111561126557600080fd5b6112718482850161113e565b91505092915050565b60008060006060848603121561128f57600080fd5b600084013567ffffffffffffffff8111156112a957600080fd5b6112b58682870161113e565b935050602084013567ffffffffffffffff8111156112d257600080fd5b6112de868287016110ea565b92505060406112ef86828701611168565b9150509250925092565b6000806040838503121561130c57600080fd5b600083013567ffffffffffffffff81111561132657600080fd5b6113328582860161113e565b925050602061134385828601611129565b9150509250929050565b60006020828403121561135f57600080fd5b600061136d84828501611168565b91505092915050565b60006113828383611493565b905092915050565b6000611396838361175b565b60208301905092915050565b60006113ad82611a4e565b6113b78185611a89565b9350836020820285016113c985611a19565b8060005b8581101561140557848403895281516113e68582611376565b94506113f183611a6f565b925060208a019950506001810190506113cd565b50829750879550505050505092915050565b600061142282611a59565b61142c8185611a9a565b935061143783611a29565b8060005b8381101561146857815161144f888261138a565b975061145a83611a7c565b92505060018101905061143b565b5085935050505092915050565b61147e81611aea565b82525050565b61148d81611b2a565b82525050565b600061149e82611a64565b6114a88185611aab565b93506114b8818560208601611b4b565b6114c181611c86565b840191505092915050565b60006114d782611a64565b6114e18185611abc565b93506114f1818560208601611b4b565b6114fa81611c86565b840191505092915050565b600061151082611a64565b61151a8185611acd565b935061152a818560208601611b4b565b80840191505092915050565b6000815461154381611b7e565b61154d8186611acd565b945060018216600081146115685760018114611579576115ac565b60ff198316865281860193506115ac565b61158285611a39565b60005b838110156115a457815481890152600182019150602081019050611585565b838801955050505b50505092915050565b60006115c2601783611abc565b91507f566f74696e67206973207374696c6c206f6e676f696e670000000000000000006000830152602082019050919050565b6000611602601783611abc565b91507f596f75206861766520616c726561647920766f7465642e0000000000000000006000830152602082019050919050565b6000611642601883611abc565b91507f566f74696e6720686173206e6f7420656e6465642079657400000000000000006000830152602082019050919050565b6000611682602a83611abc565b91507f4e756d626572206f66206f7074696f6e73206d7573742062652062657477656560008301527f6e203220616e64203130000000000000000000000000000000000000000000006020830152604082019050919050565b60006116e8601b83611abc565b91507f566f74696e672068617320616c72656164792066696e697368656400000000006000830152602082019050919050565b6000611728601283611abc565b91507f546f6b656e20616c7265616479207573656400000000000000000000000000006000830152602082019050919050565b61176481611b20565b82525050565b61177381611b20565b82525050565b60006117858284611505565b915081905092915050565b600061179c8284611536565b915081905092915050565b600060208201905081810360008301526117c181846113a2565b905092915050565b600060208201905081810360008301526117e38184611417565b905092915050565b60006020820190506118006000830184611475565b92915050565b600060208201905061181b6000830184611484565b92915050565b6000602082019050818103600083015261183b81846114cc565b905092915050565b6000604082019050818103600083015261185d81856114cc565b905061186c602083018461176a565b9392505050565b6000606082019050818103600083015261188d81866114cc565b905061189c602083018561176a565b6118a96040830184611475565b949350505050565b600060208201905081810360008301526118ca816115b5565b9050919050565b600060208201905081810360008301526118ea816115f5565b9050919050565b6000602082019050818103600083015261190a81611635565b9050919050565b6000602082019050818103600083015261192a81611675565b9050919050565b6000602082019050818103600083015261194a816116db565b9050919050565b6000602082019050818103600083015261196a8161171b565b9050919050565b6000602082019050611986600083018461176a565b92915050565b6000604051905081810181811067ffffffffffffffff821117156119b3576119b2611c57565b5b8060405250919050565b600067ffffffffffffffff8211156119d8576119d7611c57565b5b602082029050602081019050919050565b600067ffffffffffffffff821115611a0457611a03611c57565b5b601f19601f8301169050602081019050919050565b6000819050602082019050919050565b6000819050602082019050919050565b60008190508160005260206000209050919050565b600081519050919050565b600081519050919050565b600081519050919050565b6000602082019050919050565b6000602082019050919050565b600082825260208201905092915050565b600082825260208201905092915050565b600082825260208201905092915050565b600082825260208201905092915050565b600081905092915050565b6000611ae382611b00565b9050919050565b60008115159050919050565b6000819050919050565b600073ffffffffffffffffffffffffffffffffffffffff82169050919050565b6000819050919050565b6000611b3582611b20565b9050919050565b82818337600083830152505050565b60005b83811015611b69578082015181840152602081019050611b4e565b83811115611b78576000848401525b50505050565b60006002820490506001821680611b9657607f821691505b60208210811415611baa57611ba9611c28565b5b50919050565b6000611bbb82611b20565b91507fffffffffffffffffffffffffffffffffffffffffffffffffffffffffffffffff821415611bee57611bed611bf9565b5b600182019050919050565b7f4e487b7100000000000000000000000000000000000000000000000000000000600052601160045260246000fd5b7f4e487b7100000000000000000000000000000000000000000000000000000000600052602260045260246000fd5b7f4e487b7100000000000000000000000000000000000000000000000000000000600052604160045260246000fd5b6000601f19601f8301169050919050565b611ca081611ad8565b8114611cab57600080fd5b50565b611cb781611aea565b8114611cc257600080fd5b50565b611cce81611af6565b8114611cd957600080fd5b50565b611ce581611b20565b8114611cf057600080fd5b5056fea2646970667358221220add1ecb1536cf37e9c98abca0a560f373955e8ea3dd6f1de374f82d082ca78db64736f6c63430008000033",
  "immutableReferences": {},
  "source": "// SPDX-License-Identifier: MIT\npragma solidity ^0.8.0;\n\ncontract VotingSystem {\n    struct Ballot {\n        string title;\n        string[] options;\n        uint256 deadline;\n        bool isOpen;\n        mapping(string => uint256) voteCounts;\n        mapping(address => bool) hasVoted;\n    }\n\n    Ballot public latestBallot;\n    mapping(bytes32 => bool) public usedTokens;\n\n    event BallotCreated(address indexed creator, string title, uint256 deadline);\n    event VoteCasted(address indexed voter, uint256 result);\n\n    function createBallot(string memory _title, string[] memory _options, uint256 _deadline) public {\n        require(_options.length >= 2 && _options.length <= 10, \"Number of options must be between 2 and 10\");\n        latestBallot.title = _title;\n        latestBallot.options = _options;\n        latestBallot.deadline = _deadline;\n        latestBallot.isOpen = true;\n        emit BallotCreated(msg.sender, _title, _deadline);\n    }\n\n    function setTitle(string memory _title) public { latestBallot.title = _title; }\n    function setOptions(string[] memory _options) public { latestBallot.options = _options; }\n    function setDeadline(uint256 _deadline) public { latestBallot.deadline = _deadline; }\n    function setIsOpen(bool _isOpen) public { latestBallot.isOpen = _isOpen; }\n\n    function castVote(string memory _option) public {\n        require(!latestBallot.hasVoted[msg.sender], \"You have already voted.\");\n        require(latestBallot.isOpen, \"Voting has already finished\");\n        latestBallot.voteCounts[_option]++;\n        latestBallot.hasVoted[msg.sender] = true;\n        emit VoteCasted(msg.sender, 1);\n    }\n\n    function castVoteAnon(string memory _option, bytes32 tokHash) public {\n        require(!usedTokens[tokHash], \"Token already used\");\n        require(latestBallot.isOpen, \"Voting has already finished\");\n        latestBallot.voteCounts[_option]++;\n        usedTokens[tokHash] = true;\n        emit VoteCasted(address(0), 1);\n    }\n\n    function finalizeBallot() public {\n        require(block.timestamp >= latestBallot.deadline, \"Voting is still ongoing\");\n        latestBallot.isOpen = false;\n    }\n\n    function hasVotedForBallot(address _voter) public view returns (bool) {\n        return latestBallot.hasVoted[_voter];\n    }\n\n    function hasTokenUsed(bytes32 tokHash) public view returns (bool) {\n        return usedTokens[tokHash];\n    }\n\n    function getOptions() public view returns (string[] memory) { return latestBallot.options; }\n    function getBallotTitle() public view returns (string memory) { return latestBallot.title; }\n    function getDeadline() public view returns (uint256) { return latestBallot.deadline; }\n    function getCurrentTimestamp() public view returns (uint256) { return block.timestamp; }\n    function getIsOpen() public view returns (bool) { return latestBallot.isOpen; }\n\n    function getWinner() public view returns (string memory) {\n        require(!latestBallot.isOpen, \"Voting is still ongoing\");\n        require(block.timestamp >= latestBallot.deadline, \"Voting has not ended yet\");\n        uint256 maxVotes = 0;\n        string memory winner;\n        for (uint256 i = 0; i < latestBallot.options.length; i++) {\n            uint256 votes = latestBallot.voteCounts[latestBallot.options[i]];\n            if (votes > maxVotes) { maxVotes = votes; winner = latestBallot.options[i]; }\n        }\n        return winner;\n    }\n\n    function getVoteCounts() public view returns (uint256[] memory) {\n        uint256[] memory counts = new uint256[](latestBallot.options.length);\n        for (uint256 i = 0; i < latestBallot.options.length; i++) {\n            counts[i] = latestBallot.voteCounts[latestBallot.options[i]];\n        }\n        return counts;\n    }\n}",
  "sourcePath": "E:\\Coding\\Code\\Vue\\blockvote\\contracts\\VotingSystem.sol",
  "compiler": {
    "name": "solc",
    "version": "0.8.0+commit.c7dfd78e.Emscripten.clang"
  },
  "schemaVersion": "3.4.16",
  "updatedAt": "2026-05-19T07:19:08.369Z",
  "networkType": "ethereum",
  "devdoc": {
    "kind": "dev",
    "methods": {},
    "version": 1
  },
  "userdoc": {
    "kind": "user",
    "methods": {},
    "version": 1
  }
}